:100000000C949E000C94C6000C94C6000C94C60080
:100010000C94C6000C94C6000C94C6000C94C60048
:100020000C94C6000C94C6000C94C6000C94EC050D
:100030000C94C6000C94C6000C94C6000C94C60028
:100040000C9474040C94C6000C94FC030C94D6031A
:100050000C94C6000C94C6000C94C6000C94C60008
:100060000C94BE040C94C60007634236B79BD8A715
:100070001A39685618AEBAAB558C1D3CB7CC5763CD
:10008000BD6DEDFD753EF6177231BF000000803F7B
:1000900008000000BE922449123EABAAAA2ABECD97
:1000A000CCCC4C3E00000080BEABAAAAAA3E000009
:1000B0000000BF000000803F000000000008417801
:1000C000D3BB4387D1133D190E3CC3BD4282AD2B38
:1000D0003E68EC8276BED98FE1A93E4C80EFFFBE30
:1000E00001C4FF7F3F000000000000000008000284
:1000F00001000003040700000000000000000000F1
:100100000000250028002B0000000000240027002C
:100110002A00040404040404040402020202020289
:1001200003030303030301020408102040800102BB
:1001300004081020010204081020720F11241FBEB1
:10014000CFEFD8E0DEBFCDBF11E0A0E0B1E0E4EF3B
:10015000F9E202C005900D92A433B107D9F724E06B
:10016000A4E3B1E001C01D92A43DB207E1F710E0A5
:10017000CEE9D0E004C02197FE010E94ED14CD39F4
:10018000D107C9F70E94190A0C94F8140C940000C6
:10019000CF92DF92EF92FF920F931F93CF93DF9353
:1001A0006C017A018B01C0E0D0E0CE15DF0589F04B
:1001B000D8016D918D01D601ED91FC910190F081F6
:1001C000E02DC6010995892B11F47E0102C021960C
:1001D000ECCFC701DF91CF911F910F91FF90EF906E
:1001E000DF90CF900895FC01538D448D252F30E092
:1001F000842F90E0821B930B541710F0CF96089534
:1002000001970895FC01918D828D981761F0828D80
:10021000DF01A80FB11D5D968C91928D9F5F9F733A
:10022000928F90E008958FEF9FEF0895FC01918DDC
:10023000828D981731F0828DE80FF11D858D90E049
:1002400008958FEF9FEF0895FC01918D228D892FE6
:1002500090E0805C9F4F821B91098F7399270895CE
:1002600089E993E00E94240121E0892B09F420E030
:10027000822F0895FC01848DDF01A80FB11DA35AC0
:10028000BF4F2C91848D90E001968F739927848FB6
:10029000A689B7892C93A089B1898C9180648C93AD
:1002A000938D848D981306C00288F389E02D808198
:1002B0008F7D80830895EF92FF920F931F93CF93CA
:1002C000DF93EC0181E0888F9B8D8C8D981305C0A6
:1002D000E889F989808185FD24C0F62E0B8D10E018
:1002E0000F5F1F4F0F731127E02E8C8DE8120CC08B
:1002F0000FB607FCFACFE889F989808185FFF5CF31
:10030000CE010E943A01F1CF8B8DFE01E80FF11D65
:10031000E35AFF4FF0820B8FEA89FB89808180626C
:1003200007C0EE89FF896083E889F989808180644C
:10033000808381E090E0DF91CF911F910F91FF903A
:10034000EF900895CF93DF93EC01888D8823C9F057
:10035000EA89FB89808185FD05C0A889B9898C91CE
:1003600086FD0FC00FB607FCF5CF808185FFF2CF69
:10037000A889B9898C9185FFEDCFCE010E943A0101
:10038000E7CFDF91CF91089580E090E0892B29F0AD
:100390000E94300181110C940000089590E0FC014E
:1003A000E651FF4F3491FC01EA5DFE4F2491FC01C0
:1003B000EE5EFE4FE491EE2309F43BC0332339F1A6
:1003C000333091F038F43130A9F0323001F584B592
:1003D0008F7D12C0373091F03830A1F03430B9F44D
:1003E000809180008F7D03C0809180008F77809303
:1003F00080000DC084B58F7784BD09C08091B000A6
:100400008F7703C08091B0008F7D8093B000F0E0C3
:10041000EE0FFF1FE250FF4FA591B4918FB7F894F4
:10042000EC91611103C020952E2301C02E2B2C933B
:100430008FBF08953FB7F894809181019091820118
:10044000A0918301B091840126B5A89B05C02F3FE0
:1004500019F00196A11DB11D3FBFBA2FA92F982FEA
:100460008827820F911DA11DB11DBC01CD0142E065
:10047000660F771F881F991F4A95D1F7089585ED5C
:100480008093BC008091BC0084FDFCCF109275036A
:10049000089540915701262F30E0240F311D21325D
:1004A0003105DCF4209175032430C9F4FC0180E0AF
:1004B00090E0861758F4309157012191DC01AB5C34
:1004C000BE4FA30FB11D2C930196F3CF809157011E
:1004D000680F6093570180E0089581E0089582E0FD
:1004E00008950895E0912E0380912D03E81730F4CC
:1004F000F0E0E15DFC4F808190E008958FEF9FEF89
:10050000089590912E0380912D03981750F4E92FB0
:10051000F0E0E15DFC4F208130E09F5F90932E037F
:1005200002C02FEF3FEFC901089580912D0390E0A5
:1005300020912E03821B91090895CF92DF92EF92B2
:10054000FF920F931F93CF93DF937C01262F972F5A
:100550008A0180917603882391F0C62FD72F6E01F0
:10056000C40ED51ECC15DD0571F06991D701ED9152
:10057000FC910190F081E02DC7010995F3CF642F24
:10058000822F0E944902C801DF91CF911F910F91E4
:10059000FF90EF90DF90CF900895CF93DF931F925D
:1005A000CDB7DEB76983209176032223D1F0209165
:1005B0009803203240F021E030E0FC0133832283B5
:1005C00080E090E015C080917703E82FF0E0E858D4
:1005D000FC4F998190838F5F80937703809398037A
:1005E00005C061E0CE0101960E94490281E090E0E1
:1005F0000F90DF91CF910895089580E090E00895E5
:100600004F925F926F927F928F929F92AF92BF9222
:10061000CF92DF92EF92FF926B017C01B42E9B018F
:10062000AC010E949713882319F084E291E027C05F
:1006300026013701E89477F82FEF3FEF4FE75FE7A8
:10064000C301B2010E94971381110DC02FEF3FEF3C
:100650004FE75FE7C301B2010E94761118161CF440
:1006600088E291E00CC02FEF3FEF4FE75FE4C70156
:10067000B6010E94D512181684F48CE291E0FF9026
:10068000EF90DF90CF90BF90AF909F908F907F9032
:100690006F905F904F900C94C2072FEF3FEF4FE7A2
:1006A0005FECC701B6010E94761187FDE6CF20E01E
:1006B00030E0A901C701B6010E94761187FF09C089
:1006C0008DE20E940E0A4C01F7FAF094F7F8F094CC
:1006D00002C0812C912CA12C60E070E080E09FE3AF
:1006E000AB1441F020E030E040E251E40E947B1185
:1006F000A394F6CF9B01AC01C701B6010E940A1179
:100700002B013C010E94F4116B017C010E94231219
:100710009B01AC01C301B2010E9409112B013C01F4
:100720004AE0C701B6010E94D4077C01E80CF91C1D
:10073000BB2029F08EE20E940E0AE80EF91EDB2C87
:10074000DD2021F120E030E040E251E4C301B201BC
:100750000E94DA122B013C010E94F4114B01A12CE2
:10076000B12C4AE0C501B4010E94D407E80EF91E7D
:10077000C501B4010E9423129B01AC01C301B20167
:100780000E9409112B013C01DA94DACFC701FF90D6
:10079000EF90DF90CF90BF90AF909F908F907F9021
:1007A0006F905F904F9008950E94F3141F920F92E4
:1007B0000FB60F9211242F933F934F935F936F9334
:1007C0007F938F939F93AF93BF93EF93FF9389E9A9
:1007D00093E00E943A01FF91EF91BF91AF919F91F9
:1007E0008F917F916F915F914F913F912F910F90DA
:1007F0000FBE0F901F9018951F920F920FB60F9279
:1008000011242F938F939F93EF93FF93E091A9036C
:10081000F091AA038081E091AF03F091B00382FDD3
:1008200012C090818091B2038F5F8F732091B303C8
:10083000821751F0E091B203F0E0E756FC4F958F3C
:100840008093B20301C08081FF91EF919F918F91BE
:100850002F910F900FBE0F901F9018958F929F921F
:10086000AF92BF92CF92DF92EF92FF926B017C0129
:100870000E941A024B015C01C114D104E104F1048D
:10088000F1F00E941A02DC01CB0188199909AA092A
:10089000BB09883E9340A105B10570F321E0C21A5F
:1008A000D108E108F10888EE880E83E0981EA11CAB
:1008B000B11CC114D104E104F10419F7DDCFFF909C
:1008C000EF90DF90CF90BF90AF909F908F90089562
:1008D0002FB7F89460917D0170917E0180917F0126
:1008E000909180012FBF08951F920F920FB60F9223
:1008F00011242F933F938F939F93AF93BF93809136
:100900007D0190917E01A0917F01B0918001309195
:100910007C0123E0230F2D3720F40196A11DB11D8A
:1009200005C026E8230F0296A11DB11D20937C016E
:1009300080937D0190937E01A0937F01B09380010D
:100940008091810190918201A0918301B0918401F5
:100950000196A11DB11D8093810190938201A09306
:100960008301B0938401BF91AF919F918F913F918B
:100970002F910F900FBE0F901F9018951F920F92FE
:100980000FB60F9211242F933F934F935F936F9362
:100990007F938F939F93AF93BF93EF93FF93809138
:1009A000B900887F803609F49CC068F5883209F464
:1009B0005BC090F4803109F454C038F4882309F402
:1009C000F6C0883009F44DC0F6C0883109F44CC037
:1009D000803209F45DC0EFC0803409F468C048F487
:1009E000803309F455C0883309F0E5C08093730360
:1009F000D8C0803509F44FC0883509F45DC088340B
:100A000009F0D9C0D6C0883909F4C7C0A8F488371E
:100A100009F467C038F4883609F463C0803709F4F4
:100A200060C0C9C0883809F4B8C0803909F45FC013
:100A3000803809F0C0C05BC0803B09F486C038F440
:100A4000803A09F466C0883A09F47FC0B4C0803C9B
:100A500009F4A7C0883C09F4A4C0883B09F48AC003
:100A6000AAC08091500310C09091720380917103CD
:100A7000981770F5E091720381E08E0F80937203F6
:100A8000F0E0EF5AFC4F80818093BB0085EC86C07C
:100A9000809373038EC0E091720381E08E0F809388
:100AA00072038091BB00F0E0EF5AFC4F808390917D
:100AB0007203809171036EC0E091720381E08E0F2A
:100AC000809372038091BB00F0E0EF5AFC4F80836B
:100AD0008091740381116DC081E080934F0384EA9B
:100AE00061C083E08093750310927B01CFCF80912A
:100AF0007B01803208F051C0E0917B0181E08E0FD4
:100B000080937B018091BB00F0E0E55AFE4F80832B
:100B1000BDCF85EC8093BC001092750380917B0162
:100B2000803230F4E0917B01F0E0E55AFE4F108214
:100B300060917B0170E0E0915901F0915A018BE5E1
:100B400091E0099510927B0136C084E08093750393
:100B50001092580110925701E0915501F091560101
:100B6000099580915701811105C081E0809357015B
:100B700010923501E091580181E08E0F8093580169
:100B8000F0E0EB5CFE4F80818093BB0090915801B8
:100B900080915701981708F479CF85E88093BC00BD
:100BA0000AC085EC8093BC001092750304C01092BB
:100BB00073030E943F02FF91EF91BF91AF919F910C
:100BC0008F917F916F915F914F913F912F910F90F6
:100BD0000FBE0F901F9018951F920F920FB60F9295
:100BE00011242F933F934F935F936F937F938F9332
:100BF0009F93AF93BF93EF93FF938091340187FF4F
:100C000005C010928500109284001BC02091340111
:100C1000022E000C330B8091660490E028173907F0
:100C200084F480913401082E000C990BFC01EE0F26
:100C3000FF1F8E0F9F1FFC01EE5BFB4F808186FD27
:100C400015C0809134018F5F80933401209134016D
:100C5000022E000C330B8091660490E028173907B0
:100C6000C4F4809134018C3064F113C0809134015C
:100C7000082E000C990BFC01EE0FFF1F8E0F9F1F1B
:100C8000FC01EE5BFB4F808160E08F730E94CE0120
:100C9000D8CF8091840090918500049680349C493F
:100CA00018F480E49CE905C080918400909185004F
:100CB000049690938900809388008FEF809334018D
:100CC0003BC0209184003091850080913401082E32
:100CD000000C990BFC01EE0FFF1F8E0F9F1FFC01F4
:100CE000EE5BFB4F81819281820F931F909389006D
:100CF0008093880080913401082E000C990BFC0130
:100D0000EE0FFF1F8E0F9F1FFC01EE5BFB4F8081DC
:100D100086FF12C080913401082E000C990BFC0153
:100D2000EE0FFF1F8E0F9F1FFC01EE5BFB4F8081BC
:100D300061E08F730E94CE01FF91EF91BF91AF915F
:100D40009F918F917F916F915F914F913F912F91E3
:100D50000F900FBE0F901F901895209198039091BF
:100D6000D304213208F04AC0809175038111FCCF71
:100D700032E03093750331E0309374033FEF3093EA
:100D800073031092720320937103A8E7B3E041E567
:100D900053E0FA013E2F341B321718F43D91319382
:100DA000F9CF1092500320915003990F922B9093FA
:100DB000500390914F03913061F410924F03909142
:100DC00050039093BB009091BC0093FDF8CF95EC3D
:100DD00001C095EE9093BC00909175039230E1F3C1
:100DE000909173039F3F79F080917303803241F0BB
:100DF00080917303803331F084E005C081E003C04B
:100E000082E001C083E01092770310929803109261
:100E100076030895CF93C82F81E08093760387E708
:100E20008093D304109277031092980364EF86E3C3
:100E300094E00E94CD026C2F86E394E00E94CD02E4
:100E4000CF910C94AD06909175039111FCCF813236
:100E500008F080E291E090937503909374032FEF74
:100E60002093730310927203280F209371039093C1
:100E70005003909150039E6E9093500390914F03B6
:100E8000913061F410924F03909150039093BB0006
:100E90009091BC0093FDF8CF95EC01C095EE909336
:100EA000BC00909175039130E1F390917203981713
:100EB00010F480917203A1E5B3E02FE233E0F90171
:100EC0009E2F921B981718F49D919193F9CF109231
:100ED0002E0380932D030895CF93C1E0C093760332
:100EE00097E79093D3041092770310929803682F9A
:100EF00086E394E00E94CD020E94AD06C093760383
:100F0000109277031092980381E090E00E942307EB
:100F100086E394E00E948102C82F0E94AD068C2FC8
:100F2000CF910895CF93DF93C1E0C093760397E705
:100F30009093D3041092770310929803682F86E35E
:100F400094E00E94CD020E94AD06C09376031092F9
:100F500077031092980382E090E00E94230786E3D3
:100F600094E00E948102D82F80E0C82F86E394E0AD
:100F70000E948102C82BD92B0E94AD06CE01DF91C1
:100F8000CF910895009769F0FC0101900020E9F7E6
:100F90003197AF01481B590BBC0189E993E00C94D0
:100FA000C80080E090E008958F929F92AF92BF9228
:100FB0000F931F93CF93DF93CDB7DEB7A1970FB6F3
:100FC000F894DEBF0FBECDBF19A2423008F44AE04C
:100FD0008E010F5D1F4F842E912CA12CB12CA501E9
:100FE00094010E94D810E62FB901CA0101501109DD
:100FF000EA3014F4E05D01C0E95CD801EC93232BE6
:10100000242B252B61F7C8010E94C207A1960FB6B9
:10101000F894DEBF0FBECDBFDF91CF911F910F912E
:10102000BF90AF909F908F9008958EE20E940A0724
:1010300065E070E080E090E00E942E0486EF0C9462
:1010400092073F924F925F926F927F928F929F9200
:10105000AF92BF92CF92DF92EF92FF920F931F93C6
:10106000CF93DF93CDB7DEB728970FB6F894DEBFE6
:101070000FBECDBF6C01E12CF12C8091BC04829598
:10108000880F880F807C8C5C0E940A078091BC04CA
:10109000811105C065E070E080E090E012C0813011
:1010A00029F468E070E080E090E00BC0823029F421
:1010B0006EE070E080E090E004C06AE170E080E003
:1010C00090E00E942E0486EF0E9492074C01A12C12
:1010D000B12CBA2CA92C982C882488EF0E946C077C
:1010E000882A3090BC048091D1049091D204A70149
:1010F0009601281B390B41095109A091CF04B091E9
:10110000D0040E94C5106B017C01AFE0F594E79418
:10111000D794C794AA95D1F76091C9047091CA0475
:10112000CB01770FAA0BBB0BBC01CD01BBE0660F57
:10113000771F881F991FBA95D1F72091CB04309162
:10114000CC048901330F220B330BA90198012C0D1C
:101150003D1D4E1D5F1D0E94A610C20ED31EE41E33
:10116000F51E20EAC21A2FE0D20AE108F108A70111
:101170009601C701B6010E94D1149B01AC011CE08D
:1011800055954795379527951A95D1F729833A8331
:101190004B835C830091BD041091BE04A091C104F7
:1011A000B091C204A70196010E94D0102B013C010E
:1011B0008DE075946794579447948A95D1F7A091E0
:1011C000C304B091C40429813A814B815C810E949F
:1011D000D010BB2797FDB095AB2F840D951DA61D94
:1011E000B71D0296A11DB11D32E0B595A795979543
:1011F00087953A95D1F79C01AD0130584F4F5F4F1D
:10120000A091CD04B091CE040E94C5102B013C01E9
:101210004FE076946794579447944A95D1F788E0C5
:1012200090E083199109A501940104C05695479552
:10123000379527958A95D2F72D833E834F8358871C
:101240004801110FAA08BB0852E0880C991CAA1C7F
:10125000BB1C5A95D1F7A091C504B091C604298151
:101260003A814B815C810E94D0109B01AC016BE004
:1012700055954795379527956A95D1F729833A83F0
:101280004B835C83A091BF04B091C004A701960179
:101290000E94D010DC01CB017BE0B595A795979516
:1012A00087957A95D1F729813A814B815C81820FAC
:1012B000931FA41FB51F880D991DAA1DBB1D032CCC
:1012C00004C0880F991FAA1FBB1F0A94D2F7BC0144
:1012D000CD016E5F7F4F8F4F9F4F24E030E040E0A5
:1012E00050E00E94A6108D819E81AF81B885821B3F
:1012F000930BA40BB50B9C01AD0180E593ECA0E032
:10130000B0E0BC01CD0104C09695879577956795AF
:101310003A94D2F70E94D11497FD0BC0660F771F45
:10132000881F991FA30192010E94D81069017A01B8
:101330000AC0A30192010E94D81069017A01CC0C65
:10134000DD1CEE1CFF1C9927F7FC9A958F2D7E2D36
:101350006D2D9B01AC010E94D1149B01AC01AEED3F
:10136000BBE00E94C5104C01BB2497FCB094AB2C91
:10137000A3E4B3EEA70196010E94D310BB2797FD0B
:10138000B095AB2F880D991DAA1DBB1D8153914FA0
:10139000AF4FBF4F44E0B595A795979587954A9570
:1013A000D1F7BC01CD016C0D7D1D8E1D9F1D2896B2
:1013B0000FB6F894DEBF0FBECDBFDF91CF911F9166
:1013C0000F91FF90EF90DF90CF90BF90AF909F90E4
:1013D0008F907F906F905F904F903F90089590E036
:1013E000FC01EA5DFE4F2491FC01EE5EFE4F84910C
:1013F000882399F090E0880F991FFC01E85FFE4F69
:10140000A591B491FC01E250FF4F859194918FB763
:10141000F894EC91E22BEC938FBF0895E09199033F
:10142000F0919A030190F081E02D682F89E993E013
:101430000994CF93DF93CDB7DEB72D970FB6F8940D
:10144000DEBF0FBECDBF789484B5826084BD84B505
:10145000816084BD85B5826085BD85B5816085BDAF
:1014600080916E00816080936E0010928100809167
:1014700081008260809381008091810081608093EF
:101480008100809180008160809380008091B10014
:1014900084608093B1008091B00081608093B0003F
:1014A00080917A00846080937A0080917A008260D3
:1014B00080937A0080917A00816080937A00809195
:1014C0007A00806880937A001092C100E091A903AD
:1014D000F091AA0382E08083E091A503F091A60336
:1014E0001082E091A703F091A80380E1808310921D
:1014F000B103E091AD03F091AE0386E08083E0910B
:10150000AB03F091AC03808180618083E091AB03F9
:10151000F091AC03808188608083E091AB03F0910F
:10152000AC03808180688083E091AB03F091AC03D1
:1015300080818F7D808381E08093BC0410922E0394
:1015400010922D0310927703109298031092750356
:101550008093740310924F0361E082E10E94CE01F8
:1015600061E083E10E94CE018091B9008E7F80937B
:10157000B9008091B9008D7F8093B90088E4809391
:10158000B80085E48093BC0080ED0E946C0780ED7C
:101590000E946C07682F70E080E090E04AE00E94B3
:1015A000D40780E391E00E94C2078AEA0E94920772
:1015B0009093BE048093BD048CEA0E94920790939E
:1015C000C0048093BF048EEA0E9492079093C204E5
:1015D0008093C10480EB0E9492079093CE04809385
:1015E000CD0482EB0E9492079093D0048093CF04A5
:1015F00084EB0E9492079093D2048093D10486EBEF
:101600000E9492079093C4048093C30488EB0E94C5
:1016100092079093C6048093C5048AEB0E949207B8
:101620009093C8048093C7048CEB0E949207909318
:10163000CA048093C9048EEB0E9492079093CC0455
:101640008093CB048091AF048C3008F050C08AE0C6
:101650000E94EF098091AF04E82FF0E09F01220F74
:10166000331FE20FF31FEE5BFB4F9081907C9A607B
:1016700090831092B0041092B1046CE00E94E114C7
:101680002CE0829FB001112440E050E09A01260F27
:10169000371FF901EE0FFF1F2E0F3F1FF901EE5B01
:1016A000FB4F908196FD16C04F5F5F4F4C30510548
:1016B00069F781110FC01092800082E08093810051
:1016C0001092850010928400B19A80916F00826020
:1016D00080936F00E091AF04F0E0CF01880F991F75
:1016E000E80FF91FEE5BFB4F80818064808308EC7C
:1016F00010E00E9415080E9421080E94251220E88F
:1017000036EE45EC57E40E947B1121E03EED42E4C9
:101710005EE30E9447139B01AC0160E070E080E84B
:101720009FE30E94091120E03AE24DE257E40E9453
:10173000DA122091890130918A0140918B015091F8
:101740008C010E940A116093890170938A01809331
:101750008B0190938C010150110959F620E030E083
:1017600048E453E40E947B116093890170938A01DD
:1017700080938B0190938C0142E00E94000380E3F0
:1017800091E00E94C20760E08091B2040E94CE0105
:1017900060E08091B4040E94CE0160E08091B604C4
:1017A0000E94CE0160E08091B8040E94CE01809139
:1017B000AD040091910410919204811145C0D801AB
:1017C000CD90DD90ED90FC90C0929904D0929A0457
:1017D000E0929B04F0929C04E0918F04F0919004BD
:1017E00080819181A281B38180939D0490939E0416
:1017F000A0939F04B093A0048090A9049090AA04A1
:10180000A090AB04B090AC04A5019401C701B6014F
:101810000E94D512181684F08090A5049090A6041A
:10182000A090A704B090A804A5019401C701B60137
:101830000E94761187FF08C08092990490929A04C2
:10184000A0929B04B0929C0481E08093AD04C12CD3
:10185000F0E8DF2EF9E8EF2EF4E4FF2EC092A504A5
:10186000D092A604E092A704F092A804412CA0E82C
:101870005A2EA4ED6A2EA4E47A2E4092A904509226
:10188000AA046092AB047092AC04F801808091804D
:10189000A280B380A3019201C501B4010E94D512B8
:1018A00018163CF4D8014D925D926D927C9213977C
:1018B0000FC020E030E849E854E4C501B4010E94BB
:1018C000761187FF05C0F801C082D182E282F382DF
:1018D0008090990490909A04A0909B04B0909C04EE
:1018E000C090A904D090AA04E090AB04F090AC049E
:1018F000A7019601C501B4010E94D512181684F003
:10190000C090A504D090A604E090A704F090A8048D
:10191000A7019601C501B4010E94761187FF08C096
:10192000C0929904D0929A04E0929B04F0929C0495
:101930006091A1047091A2048091A3049091A404E9
:101940000E9423129B01AC0160E070E080EA91E408
:101950000E947B116B017C019B01AC0160918304AF
:101960007091840480918504909186040E94DA121B
:101970006093830470938404809385049093860419
:10198000A701960160918704709188048091890471
:1019900090918A040E947B1160938704709388045D
:1019A0008093890490938A0484E190E0A0E0B0E001
:1019B0008093A1049093A204A093A304B093A404E1
:1019C0000E9468040091290310912A0320912B039F
:1019D00030912C03DC01CB01801B910BA20BB30BCC
:1019E000893E9340A105B105C8F00E941508BC01CD
:1019F00080E090E00E9423126093250370932603F9
:101A000080932703909328030E946804609329031E
:101A100070932A0380932B0390932C0360912503EA
:101A20007091260380912703909128030E94F4115E
:101A3000CB010E9421080E94251220E836EE45ECD9
:101A400057E40E947B1121E03EED42E45EE30E94F8
:101A500047139B01AC0160E070E080E89FE30E94C7
:101A6000091120E03AE24DE257E40E94DA126B01DC
:101A70007C0160932103709322038093230390934E
:101A8000240360911D0370911E0380911F039091A8
:101A900020038B019C010F5F1F4F2F4F3F4F00937F
:101AA0001D0310931E0320931F033093200324E68D
:101AB00030E040E050E00E94A610660F771F660FEE
:101AC000771FFB01E357FE4FC082D182E282F3828F
:101AD00020E030E0A9016091890170918A01809134
:101AE0008B0190918C010E940A116093670470939E
:101AF00068048093690490936A04C0926F04D09242
:101B00007004E0927104F09272048091AD04882315
:101B100009F43FC10E9468046D837E838F83988798
:101B20008091950490919604A0919704B0919804A7
:101B30004D815E816F817885481B590B6A0B7B0B49
:101B40008091A1049091A204A091A304B091A40457
:101B5000481759076A077B0708F41BC120918F04B7
:101B600030919004D9018D919D910D90BC91A02D43
:101B700089839A83AB83BC83E0919304F0919404AE
:101B80009C01AD0160817181828193810E94091164
:101B90004B015C0120919D0430919E0440919F0473
:101BA0005091A00469817A818B819C810E940911E6
:101BB0006B017C0120918304309184044091850461
:101BC00050918604C501B4010E94DA122091990453
:101BD00030919A0440919B0450919C040E940A11F8
:101BE0002B013C016093990470939A0480939B04A9
:101BF00090939C043090AE0431101AC020917F0461
:101C0000309180044091810450918204C701B60153
:101C10000E94DA129B01AC01C301B2010E940911BA
:101C20006093990470939A0480939B0490939C040E
:101C30004090990450909A0460909B0470909C048A
:101C40000091A9041091AA04B091AB04BD87209023
:101C5000AC0498014B2F522DC301B2010E94D51242
:101C6000181624F4C801AD85B22D18C08091A504C2
:101C70009091A604A091A704B091A80489879A879F
:101C8000AB87BC879C01AD01C301B2010E947611F4
:101C900087FF0CC089859A85AB85BC8580939904A4
:101CA00090939A04A0939B04B0939C04332079F002
:101CB00020917F04309180044091810450918204EE
:101CC000C501B4010E94DA124B015C0103C0812CF2
:101CD000912C54012091870430918804409189040B
:101CE00050918A04C701B6010E94DA129B01AC012F
:101CF0006091990470919A0480919B0490919C0446
:101D00000E9409119B01AC01C501B4010E940A1196
:101D10006B017C0198014D85522D0E94D512181639
:101D2000ACF00091A5041091A6049091A7049D87A2
:101D30002090A8049801492F522DB601C7010E9496
:101D4000761187FD03C08601ED862F2CE09191046A
:101D5000F0919204C801AD85B22D80839183A28356
:101D6000B38389819A81AB81BC8180939D049093D8
:101D70009E04A0939F04B093A0048D819E81AF81A7
:101D8000B8858093950490939604A0939704B0939C
:101D9000980460916B0470916C0480916D04909133
:101DA0006E040E94ED116B017C010E941A020091E9
:101DB0008501109186012091870130918801AB0146
:101DC000BC01401B510B620B730B80E29EE48C192B
:101DD0009D09092E000CAA0BBB0B84179507A607BB
:101DE000B70708F03FC00E941A0260938501709304
:101DF000860180938701909388018091AF048C3095
:101E000088F59091B00428E830E0291B310997FD4E
:101E10003395220F331F220F331FC216D30684F0CF
:101E20009091B10428E532E0291B310997FD3395E3
:101E3000220F331F220F331FC216D3060CF4960154
:101E400022503109220F331F4FB7F89490E0FC0164
:101E5000EE0FFF1F8E0F9F1FFC01EE5BFB4F3283C7
:101E600021834FBF6091210370912203809123034E
:101E70009091240342E00E94000380E20E940E0A37
:101E80006091890170918A0180918B0190918C0100
:101E900042E00E94000380E20E940E0A20E030E847
:101EA00049E854E460916B0470916C0480916D0476
:101EB00090916E040E94091120E030E046E952E45E
:101EC0000E947B1120E030E046E254E40E940A11B7
:101ED00042E00E94000380E391E00E94C2070E945A
:101EE000C4016ECD0F931F9310929C0310929B031D
:101EF00088EE93E0A0E0B0E080939D0390939E0372
:101F0000A0939F03B093A00324E031E030939A03A1
:101F10002093990325EC30E03093A6032093A5038A
:101F200024EC30E03093A8032093A70320EC30E0AA
:101F30003093AA032093A90321EC30E03093AC0343
:101F40002093AB0322EC30E03093AE032093AD033B
:101F500026EC30E03093B0032093AF031092B2032D
:101F60001092B3031092B4031092B5031092390487
:101F70001092380480933A0490933B04A0933C045D
:101F8000B0933D0486E191E090933704809336044A
:101F900084E00E94EF0985E00E94EF0986E00E943C
:101FA000EF0987E00E94EF0984E090E09093B3048A
:101FB0008093B20485E090E09093B5048093B404DC
:101FC00086E090E09093B7048093B60487E090E0B9
:101FD0009093B9048093B804809166048C30A0F487
:101FE00091E0980F909366048093AF0490E0FC0119
:101FF000EE0FFF1F8E0F9F1FFC01EE5BFB4F88EB68
:102000009BE09283818303C08FEF8093AF048BE6C4
:1020100094E090939204809391048FE694E09093DF
:10202000900480938F0487E694E0909394048093C7
:1020300093041092AD041092A5041092A60410927D
:10204000A7041092A80480E090E0AFE7B3E4809387
:10205000A9049093AA04A093AB04B093AC0484E6C3
:1020600090E0A0E0B0E08093A1049093A204A0933C
:10207000A304B093A40410928C0410928B0481E00A
:1020800090E090938E0480938D048093AE0480E062
:1020900090E0A8ECB2E48093730490937404A0934E
:1020A0007504B093760440E050E060E271E4409340
:1020B0007704509378046093790470937A044AE02B
:1020C00057ED63E27CE340937B0450937C04609380
:1020D0007D0470937E0480937F0490938004A0938A
:1020E0008104B093820480E090E0A0E8BFE3809395
:1020F000830490938404A0938504B09386048CECAD
:102100009CECACECBDE38093870490938804A0938F
:102110008904B0938A040E9468040091A10410917C
:10212000A2042091A3043091A404DC01CB01801B04
:10213000910BA20BB30B8093950490939604A093FC
:102140009704B09398041F910F910895052E97FB63
:102150001EF400940E94BD1057FD07D00E94D810B5
:1021600007FC03D04EF40C94BD105095409530956B
:1021700021953F4F4F4F5F4F0895909580957095F3
:1021800061957F4F8F4F9F4F08950E94FA10A59F32
:10219000900DB49F900DA49F800D911D1124089562
:1021A000B7FF0C94C5100E94C510821B930B0895B5
:1021B000A1E21A2EAA1BBB1BFD010DC0AA1FBB1F4B
:1021C000EE1FFF1FA217B307E407F50720F0A21BBD
:1021D000B30BE40BF50B661F771F881F991F1A942A
:1021E00069F760957095809590959B01AC01BD0154
:1021F000CF010895A29FB001B39FC001A39F700DAE
:10220000811D1124911DB29F700D811D1124911DFE
:1022100008955058BB27AA270E9421110C949B12A5
:102220000E948D1238F00E94941220F039F49F3FE2
:1022300019F426F40C948A120EF4E095E7FB0C9442
:102240008412E92F0E94AC1258F3BA176207730781
:102250008407950720F079F4A6F50C94CE120EF4BD
:10226000E0950B2EBA2FA02D0B01B90190010C01A6
:10227000CA01A0011124FF27591B99F0593F50F4BE
:10228000503E68F11A16F040A22F232F342F442716
:10229000585FF3CF469537952795A795F04053950E
:1022A000C9F77EF41F16BA0B620B730B840BBAF0DE
:1022B0009150A1F0FF0FBB1F661F771F881FC2F749
:1022C0000EC0BA0F621F731F841F48F4879577955D
:1022D0006795B795F7959E3F08F0B0CF9395880F17
:1022E00008F09927EE0F9795879508950E94601240
:1022F00008F481E008950E948F110C949B120E94B3
:10230000941258F00E948D1240F029F45F3F29F09A
:102310000C94841251110C94CF120C948A120E94C6
:10232000AC1268F39923B1F3552391F3951B550B28
:10233000BB27AA2762177307840738F09F5F5F4F98
:10234000220F331F441FAA1FA9F335D00E2E3AF0D7
:10235000E0E832D091505040E695001CCAF72BD0EF
:10236000FE2F29D0660F771F881FBB1F2617370740
:102370004807AB07B0E809F0BB0B802DBF01FF2772
:1023800093585F4F3AF09E3F510578F00C948412B9
:102390000C94CF125F3FE4F3983ED4F38695779583
:1023A0006795B795F7959F5FC9F7880F911D96952B
:1023B000879597F90895E1E0660F771F881FBB1F87
:1023C000621773078407BA0720F0621B730B840B34
:1023D000BA0BEE1F88F7E09508950E94F4116894F7
:1023E000B1110C94CF1208950E94B41288F09F5737
:1023F00098F0B92F9927B751B0F0E1F0660F771F29
:10240000881F991F1AF0BA95C9F714C0B13091F01E
:102410000E94CE12B1E008950C94CE12672F782F4F
:102420008827B85F39F0B93FCCF3869577956795E3
:10243000B395D9F73EF490958095709561957F4F4F
:102440008F4F9F4F0895E89409C097FB3EF49095F5
:102450008095709561957F4F8F4F9F4F9923A9F07D
:10246000F92F96E9BB279395F6958795779567950C
:10247000B795F111F8CFFAF4BB0F11F460FF1BC050
:102480006F5F7F4F8F4F9F4F16C0882311F096E9E3
:1024900011C0772321F09EE8872F762F05C0662391
:1024A00071F096E8862F70E060E02AF09A95660F4A
:1024B000771F881FDAF7880F9695879597F9089503
:1024C000990F0008550FAA0BE0E8FEEF1616170645
:1024D000E807F907C0F012161306E407F50798F0AD
:1024E000621B730B840B950B39F40A2661F0232BC6
:1024F000242B252B21F408950A2609F4A140A69542
:102500008FEF811D811D089597F99F6780E870E026
:1025100060E008959FEF80EC089500240A94161659
:10252000170618060906089500240A9412161306C1
:10253000140605060895092E0394000C11F488234F
:1025400052F0BB0F40F4BF2B11F460FF04C06F5F6B
:102550007F4F8F4F9F4F089557FD9058440F551F41
:1025600059F05F3F71F04795880F97FB991F61F015
:102570009F3F79F087950895121613061406551F8C
:10258000F2CF4695F1DF08C0161617061806991FF8
:10259000F1CF86957105610508940895E894BB27ED
:1025A00066277727CB0197F908950E94601208F4F7
:1025B0008FEF08950E94ED120C949B120E948D12D1
:1025C00038F00E94941220F0952311F00C9484129C
:1025D0000C948A1211240C94CF120E94AC1270F346
:1025E000959FC1F3950F50E0551F629FF001729FB8
:1025F000BB27F00DB11D639FAA27F00DB11DAA1FC7
:10260000649F6627B00DA11D661F829F2227B00D13
:10261000A11D621F739FB00DA11D621F839FA00D9E
:10262000611D221F749F3327A00D611D231F849FEE
:10263000600D211D822F762F6A2F11249F57504045
:102640009AF0F1F088234AF0EE0FFF1FBB1F661FC0
:10265000771F881F91505040A9F79E3F510580F089
:102660000C9484120C94CF125F3FE4F3983ED4F3A1
:10267000869577956795B795F795E7959F5FC1F72D
:10268000FE2B880F911D9695879597F90895FA016D
:10269000EE0FFF1F309621053105A1F1611571057F
:1026A00061F48038BFE39B0749F168949038810555
:1026B00061F08038BFEF9B0741F099234AF5FF3F57
:1026C000E1053105210519F1E8940894E795D90150
:1026D000AA2329F4AB2FBE2FF85FD0F310C0FF5F01
:1026E00070F4A695E0F7F73950F019F0FF3A38F496
:1026F0009F779F930DD00F9007FC9058089546F058
:102700000C948A1260E070E080E89FE308954FE740
:102710009F775F934F933F932F930E9447142F917E
:102720003F914F915F910E94DA120C94A4130E9482
:102730006012880B990B089529F416F00C948412FA
:102740000C94CE120C948A120E94B412A8F39638FC
:10275000A0F707F80F92E8942BE33AEA48EB5FE71B
:102760000E94F0120F920F920F924DB75EB70F9228
:102770000E948F14E8E6F0E00E94D6134F915F911B
:10278000EF91FF91E595EE1FFF1F49F0FE57E068BE
:102790004427EE0F441FFA95E1F74195550B0E942F
:1027A00009140F9007FE0C94FD130895DF93CF9347
:1027B0001F930F93FF92EF92DF927B018C0168943D
:1027C00006C0DA2EEF010E94ED12FE01E894A591F9
:1027D0002591359145915591A6F3EF010E94211164
:1027E000FE019701A801DA9469F7DF90EF90FF905E
:1027F0000F911F91CF91DF9108959B01AC0160E093
:1028000070E080E89FE30C947B110C9484120C948C
:10281000C3140E94B412D8F39923C9F3940F511D25
:10282000A3F39150504094F059F0882332F0660F92
:10283000771F881F91505040C1F79E3F51052CF7DC
:10284000880F911D9695879597F908955F3FACF095
:10285000983E9CF0BB27869577956795B79508F4C9
:10286000B1609395C1F7BB0F58F711F460FFE8CF43
:102870006F5F7F4F8F4F9F4FE3CF0C94CF1216F0B7
:102880000C94C3140C948A1268940C9484120E94C1
:10289000B412A8F39923C1F3AEF3DF93CF931F9340
:1028A0000F93FF92C92FDD2788232AF02197660F07
:1028B000771F881FDAF720E030E040E85FEB9FE306
:1028C000883920F0803E38F021968F770E940A11D7
:1028D000E0E9F0E004C00E940A11EDEBF0E00E9494
:1028E000D6138B01BE01EC01FB2E6F577109759554
:1028F000771F880B990B0E94251228E132E741E3EC
:102900005FE30E94ED12AF2D9801AE01FF900F9191
:102910001F91CF91DF910E9421110C949B12FA011B
:10292000DC01AA0FBB1F9B01AC01BF5728F4222773
:1029300033274427507820C0B75190F4AB2F0024A0
:10294000469537952795011CA395D2F3002071F089
:10295000220F331F441FB395DAF30ED00C940911E4
:1029600061307105A0E88A07B94630F49B01AC01DB
:102970006627772788279078309621F02083318347
:102980004283538308959F3F31F0915020F48795FF
:1029900077956795B795880F911D9695879597F9C7
:1029A0000895DB018F939F930E94C510BF91AF9153
:1029B000A29F800D911DA39F900DB29F900D112499
:1029C0000895991B79E004C0991F961708F0961B8B
:1029D000881F7A95C9F780950895EE0FFF1F05901F
:1029E000F491E02D099481E090E0F8940C94F814AF
:0429F000F894FFCF89
:1029F400000000005B01C800F300A20124010201F1
:102A0400160100000000CD029D02FD027102950234
:102A1400810272026E616E00696E66006F766600F6
:042A24000D0A000097
:00000001FF
